HEADER     PROSA-ENVIA-A:       BANCO AZTECA         FECHA:             211203 CONSECUTIVO: 000001 TIPO-PROCESO: PRODUCCION                                                                                                                                                                                                                                                                                                                                                                                                   
000854155700322222975   D2P221120310573720092301010000000051400000000000000048400000000514000000000000000484000000000000000514000000000000000484000000000000000000000591000000000000000950000000051400000000000200000000                          00000000712337604814PAGO MI TELMEX                PQUE VIA NO 198                         MX      06500MEXICO DF    0011570TME 840315KT6  000050003830004874524220267380171233760009000000000000000000000000000B127            5 01935622686 011 P00300   000000000000000000
000854155700322222975   D2P220092309380520092301010000000011000000000000000048400000000110000000000000000484000000000000000110000000000000000484000000000000000000000127000000000000000200000000011000000000001100000000                          00000000792751705399CLIP MX*ALIMENTOS Y BE        AZCAPOTZALCO NO 696                     MX      02000CIUDAD DE MEX0011576BLI 120726UF6  000051969030000774518990267264079275170003000000000000000000000000000B127            0 50bKYXEnbF3S05  B07200   000000000000000000
1969034155XXXXXXXX1526   01142137B33B1EE7B48006010A03A0000000000000000000000000000000000000000000000000000000374056390066808000800020092300000000011000484 1C00484             1E0300E0B8C8002283201ICCA00000000310100000000000000000000096411CC6076FF57BAD3030000000000000                                                                                                                                                                                                                                                   
000854155700322222975   D2P221121016464320092301050000000039730000000000000048400000000397300000000000000484000000000000000397300000000000000484000000000000000000000124000000000000000200000000039730000000000400004800                          00000000608245705411WAL MART POZA RICA            CARR P R CAZONES KM50 NO4706            MX 93306     POZA RICA DE 0012450NWM 9709244W4  001410003820040574027660267100405572331900000000000000000000000000000B127           00 0           90  BIC200   000000000000000000
000854155700322222975   D2P220092214340420092301050000000044330000000000000048400000000443300000000000000484000000000000000443300000000000000484000000000000000000000129000000000000000210000000044330000000004433004800                          00000000120386805411OFFICE DEPOT POZA RICA        BLVD ADOLFO RUIZ C NO 1714              MX 93220     POZA RICA DE 0012401ODM 950324V2A  001500974130090074027660267100900066235004000000000000000000000000000B127            0 00          050 OFDM00   000000000000000000
0974134155XXXXXXXX5717   01                                                                                                                                                    1E0300E0B0C8  2290238088A0000000031010                                                                                                                                                                                                                                                                                                         
000854155700322222975   D2P220092216493020092301050000000182854000000000000048400000001828540000000000000484000000000000001828540000000000000484000000000000000000000124000000000000000200000000182854000000018285404800                          00000000608245705411WAL MART POZA RICA            CARR P R CAZONES KM50 NO4706            MX 93306     POZA RICA DE 0012450NWM 9709244W4  001412175950040574027660267100405572349900000000000000000000000000000B127           00 0           90  BIC200   000000000000000000
000854155700322222975   D2P220092300183920092321010000000001334000000000000048400000000013340000000000000484000000000000000013340000000000000484000000000000000000000015000000000000000020000000001334000000000133400000                          00000000797912804816AMAZON MX MARKETPLACE         JUAN SALVADOR AGRAZ NO 73 P7            MX      05348MEXICO DF    0011575ANE 140618P37  000053112100000774518990267938479791288209000000000000000000000000000B127            7 01UNShtCy4AM010 B07200   000000000000000000
000854155700322222975   D2P220092219330320092301010000000068075000000000000048400000000680750000000000000484000000000000000680750000000000000484000000000000000000000306000000000000000490000000068075000000006807500000                          00000000793779905541GASOL COGASA                  TLALPAN NO 1395 Y AJUSCO                MX      03300CIUDAD DE MEX0004530CGP 970522EE4  007903387290004874524220267122671740997004000000000000000000000000000B127            0 007937799   050 P00300   000000000000000000
3387294155XXXXXXXX7258   01                                                                                                                                                                                                                                                                                                                                                                                                                                                                                                   
000854155700322222975   D2P220092217151520092318050000000049222000000002000048400000000492220000000020000484000000000000000492220000000020000484000000000000000000000124000000000000000200000000049222000000006922203000                          00000000768183605411BODEGA TEXCOCO                PROL 16 D SEP Y PROL 2 DE MZO           MX 56100     TEXCOCO DE MO0012450NWM 9709244W4  001412669030040474027660267700404247486900000000000000000000000000000B127           00 0           90  BIC200   000000000000000000
000854155700322222975   D2P220092314513020092301010000005331012000000000000048400000053310120000000000000484000000000000053310120000000000000484000000000000000000000000000000000000000000000005331012000000533101200000                          00000000813821805422COMERCIAL TREVINO             LOS ANGELES NO 2150                     MX      66480SN NICOLAS DE0000026CTR 911104FBA  000050298010007974241390267003881382189003000000000000000000000000000B127           Y0 50P1301090  05  B05800   0000              
0298014155XXXXXXXX3657   0161D58B40AA0E01B38006010A03A0880000000000000000000000000000000000000000000000000000FEB96DA20018808000800020092300000005331012484 1C00484             1E0300E0B0C8002200000000A0000000031010000000000000000000008C1FAADD0D5AD5FFA43030000000000000                                                                                                                                                                                                                                                   
000854155700322222975   D2P220092308512320092301010000000038580000000000000048400000000385800000000000000484000000000000000385800000000000000484000000000000000000000174000000000000000280000000038580000000003858000000                          00000000793766605541GASOL COGASA                  CALZ TLALPAN NO 842 ESQ SUR122          MX      03530CIUDAD DE MEX0004530CGP 970522EE4  007900240740004874524220267122673760852004000000000000000000000000000B127            0 007937666   050 P00300   000000000000000000
0240744155XXXXXXXX6949   01                                                                                                                                                                                                                                                                                                                                                                                                                                                                                                   
000855534670101999625   D1P720082600000020092326060000000011050000000000000084000000002365550000000000000484000000000000000110000000000000000840021505000000000000000000000000000000000000000000236555000000023655500000                          03930098044337707538LEROYS AUTOMOTIVE                                                     USA          BUENA VISTA  000000024416          000480000000009875456670266266000001542000000000000000000000000000000B127            0 0           00  MDS 00   000000000000000000
TRAILER 00000018 000009 0000000000072661 000001 000000000049222 000012 000000000000000 000000 000000000000386 000001 000000000001334 00000000 000000000000000 000000 000000000000000 000000 000000000000000                                                                                                                                                                                                                                                                                                 000000043377546    
